:020000000E28C8
:10000800FE00030EF7000408F8000A08F9007F084C
:10001800FA00522B0F28BD25DF00BE25E000BF25C2
:10002800E100C025E200C125E3008313A03084006D
:10003800A830A725203084005F30A725FC01FD01EA
:100048008301172CF400FE307406031D2C282D287C
:10005800372883120313CA01CC01FC01FD01CB012F
:10006800CC01FD29FD29831203134C0803193D28EF
:100078003E28C4290130CA074A03031D44284528DD
:100088004A287408FD003F30FD05612802304A0601
:10009800031D4F28502855287408CB007F30CB0506
:1000A800612803304A06031D5A285B286128CA01C3
:1000B800CC01FC01FD01CB01FD2980307C06031D2C
:1000C80066286728972808307D0203186C286D2851
:1000D8007B280130F1007D0A73280310F10DFF3EE3
:1000E800031D7128710883160313850490281030A6
:1000F8007D0203188028812890280130F1007D08AE
:10010800F83E013E89280310F10DFF3E031D8728A4
:1001180071088316031386048312CA01CC01FC01FB
:10012800FD01CB01FD2981307C06031D9C289D28FB
:10013800D02808307D020318A228A328B22801304D
:10014800F1007D0AA9280310F10DFF3E031DA72821
:100158007108FF3A831603138505C82810307D02FD
:100168000318B728B828C8280130F1007D08F83EE0
:10017800013EC0280310F10DFF3E031DBE28710883
:10018800FF3A83160313860583120313CA01CC01B1
:10019800FC01FD01CB01652987307C06031DD528AC
:1001A800D6280F29F20108307D020318DC28DD2843
:1001B800ED280130F1007D0AE3280310F10DFF3E20
:1001C800031DE1287108F200831603130508F205E0
:1001D800042910307D020318F228F328042901307D
:1001E800F1007D08F83E013EFB280310F10DFF3EAB
:1001F800031DF9287108F200831603130608F20597
:1002080072080319082909290C2901309B25C828D7
:1002180000309B25C82889307C06031D1429152920
:10022800202983160313811383120313CA01CC01F7
:10023800FC01FD01CB01652988307C06031D2529B9
:1002480026292A29831603138117182998307C0632
:10025800031D2F2930296529F30108307D02031871
:100268003629372945290130F1007D0A3D29031037
:10027800F10DFF3E031D3B297108F3000508F30546
:100288005A2910307D0203184A294B295A2901306E
:10029800F1007D08F83E013E53290310F10DFF3EA1
:1002A800031D51297108F3000608F30573080319A3
:1002B8005E295F29622901309B25C82800309B25CB
:1002C800C82802304A06031D6A296B29FD29A43073
:1002D8007C06031D70297129FD294B08031D75290A
:1002E80076299E2908307D0203187B297C298929D3
:1002F8000130F1007D0A82290310F10DFF3E031D34
:1003080080297108FF3A8505902810307D0203186E
:100318008E298F2990280130F1007D08F83E013E92
:1003280097290310F10DFF3E031D95297108FF3A27
:100338008605902808307D020318A329A429B0292E
:100348000130F1007D0AAA290310F10DFF3E031DBB
:10035800A82971088504902810307D020318B52952
:10036800B62990280130F1007D08F83E013EBE29EB
:100378000310F10DFF3E031DBC2971088604902867
:10038800F41FC729C829FD2980307406031DCD290B
:10039800CE29D3297408FC000130CC00FD29813016
:1003A8007406031DD829D929DA29CE29873074067D
:1003B800031DDF29E029E129CE2988307406031DB1
:1003C800E629E729E829CE2989307406031DED2995
:1003D800EE29EF29CE2998307406031DF429F52952
:1003E800F629CE29A4307406031DFB29FC293628DA
:1003F800CE290800F500F51B022A032A5B2A751F7F
:10040800062A072A142A8312031363089B258312DA
:1004180003135D089B25831203135E089B255D2A41
:10042800F51E172A182A1C2A8312031363165D2A3D
:10043800751E1F2A202A252AEF3083120313E3058D
:100448005D2AF51D282A292A2E2A83120313DE0184
:10045800DD015D2A751D312A322A4A2AED259B25A0
:10046800F1259B25F5259B25E9259B25E5259B253C
:10047800DD259B25E1259B25D5259B25D9259B2574
:1004880009269B2507269B257D255D2AF51C4D2AD7
:100498004E2A522A8312031363145D2A751C552AA7
:1004A800562A5D2AFE3083120313E3055D2A750878
:1004B8002620080083120313540852020318652AE1
:1004C800662A692A5408D200712A6108540203185E
:1004D8006E2A6F2A712A5408E100631A742A752A51
:1004E800762ABB2A5408031D7A2A7B2A7C2ABB2A2F
:1004F8000130D4025608203E840083130003031DF4
:10050800862A872A892A0B26AA2A5608203E84008A
:1005180002300006031D912A922A942A0C26AA2A40
:100528005608203E840003300006031D9C2A9D2A9D
:100538009F2A0D26AA2A5608203E84000430000669
:10054800031DA72AA82AAA2A4B25AA2A831203131D
:100558005608203E8400831380010F30560203188A
:10056800B62AB72ABA2A0130D607BB2AD60108000C
:10057800831203135A0853020318C32AC42AC72A2A
:100588005A08D300CF2A62085A020318CC2ACD2A67
:10059800CF2A5A08E2006318D22AD32AD42A192B60
:1005A8005A08031DD82AD92ADA2A192B0130DA0267
:1005B8005C08303E840083130003031DE42AE52A07
:1005C800E72A5C25082B5C08303E840002300006D0
:1005D800031DEF2AF02AF22A0E26082B5C08303E6B
:1005E800840003300006031DFA2AFB2AFD2A102680
:1005F800082B5C08303E840004300006031D052BE0
:10060800062B082B0F26082B831203135C08303E99
:100618008400831380010F305C020318142B152B00
:10062800182B0130DC07192BDC0108008312031397
:100638005008F3005108F400740873020318252BBE
:10064800262B272B512B74087302F50060087502BE
:1006580003182F2B302B322B7508E00075084F023A
:100668000318372B382B3A2B7508CF007508F00084
:1006780004300310F00CFF3E031D3D2B4E08F10023
:1006880004300310F10CFF3E031D452B7108F200E6
:100698007008F20275087207CE0008000B1D552B72
:1006A800562B5D2B0B118330831203138100872394
:1006B8007C2B831203130C1E622B632B6A2B83166D
:1006C80003130C1E682B692B6A2B7C2B83128C1E40
:1006D8006E2B6F2B7C2B831603138C1E742B752BA0
:1006E8007C2B831203131A08FB007B08E9237C2B5D
:1006F8007A08FF0079088A0078088400770E83005A
:10070800FE0E7E0E0900B625640001308312031325
:10071800D90705305906031D922B932B962BD90127
:10072800C2258D25013083120313D80719305806C6
:10073800031D9F2BA02BA32BD801CC2513260130FA
:1007480083120313D707FA305706031DAC2BAD2BC2
:10075800B02BD701C7251226C02401306E240130E2
:100768004424AF251A231B250800831203134908C4
:10077800803AFF0080307F02031DC42B01304802FD
:10078800031CC72BC82BE72B831203134208A03E78
:10079800840083130008F0000130C2070318C30A5D
:1007A8000030C307083042064304031DDC2BDD2B51
:1007B800DF2BC201C301FF30C8070318C90AFF3085
:1007C800C9077008E82B00300800F00083120313F3
:1007D8004908803AFF0080307F02031DF52B08305E
:1007E80048020318F82BF92B162C01308312031337
:1007F800C8070318C90A0030C9074008A03E84008A
:100808007008831380000130C0070318C10A003044
:10081800C107083040064104031D132C142C162C64
:10082800C001C1010800112698246D252F2CFF2432
:1008380083120313640865040319232C242C252C24
:10084800BC22E324831203136408650403192D2CC6
:100858002E2C2F2C5E22FF248312031364086504B8
:10086800031D372C382C1B2CE32483120313640834
:100878006504031D402C412C1B2C05262F2C0E280B
:10088800F000831203135508203E840083130008E8
:10089800031D4F2C502C6B2C0130D4075508203EDB
:1008A8008400700880000F30550203185C2C5D2C02
:1008B800602C0130D507612CD5015508203E8400F5
:1008C80000080319682C692C6D2C5D166D2C7008B6
:1008D800FD250800F000831203135B08303E8400F6
:1008E80083130008031D792C7A2C952C0130DA0724
:1008F8005B08303E8400700880000F305B020318EC
:10090800862C872C8A2C0130DB078B2CDB015B08BB
:10091800303E840000080319922C932C972C5D1408
:10092800972C7008012608000430831603138100F1
:100938008330831203138100831603131812831262
:100948000313981718168316031398160C3099007A
:1009580018150730831203139F00F830831603130A
:1009680085008312031385018B160B178316031357
:100978000C128C168B170800F925003A031DC52C9C
:10098800C62CCC2CD125003A0319CB2CCC2CD02C3E
:10099800831203130515DA2C831203130511DA2CBD
:1009A800B923F60076089B257608FE2183120313E7
:1009B80048084904031DE12CE22CD42C080001301E
:1009C80083120313E80055085606031DEC2CED2C82
:1009D800F72C5608203E840083130008031DF52CCD
:1009E800F62CF72CE8016808E600E7016608E40041
:1009F8006708E5000800013083120313E8005B086C
:100A08005C06031D082D092D132D5C08303E84005B
:100A180083130008031D112D122D132DE8016808FA
:100A2800E600E7016608E4006708E5000800113001
:100A380083120313E3055E1E222D232D242DE317B5
:100A48005D1E272D282D292D63175E0809390319E6
:100A58002E2D2F2D302DE3155D1C332D342D352DE6
:100A680063150800831203130108E40064084D02AB
:100A780003183F2D402D422D6408CD005F08640205
:100A88000318472D482D4A2D6408DF00080001305F
:100A980083120313C4060030C5064418542D582D7C
:100AA8008312031305145B2D83120313051008002A
:100AB800013083120313C6060030C7064618652D99
:100AC800692D8312031385146C2D8312031385106B
:100AD800080083120313D101D001FF30E000CF01D9
:100AE800CE01CD011030E200D3011030E100D20177
:100AF800080083120313D101D001FF30E000CF01B9
:100B0800CE01CD011030E200D3011030E100D20156
:100B1800080083120313181D922D932D942D1A0883
:100B2800981C972D982D9A2D181218160800F00069
:100B3800700883120313990083160313981CA52DBC
:100B4800A62DA02D080064008001840A040603195C
:100B580000340406A82D831203130108F00070085E
:100B6800D0000800831203130108F0007008D100B8
:100B78000800FF34FF3410341034113402306E246E
:100B880002304424080004306E2404304424080051
:100B980003306E24033044240800831203135E08D4
:100BA8000800831203136108080083120313520814
:100BB8000800831203136208080083120313530802
:100BC8000800831203134D080800831203135F08FB
:100BD80008008312031360080800831203134F08E8
:100BE8000800831203134E080800831203135D08DC
:100BF8000800831203135E160800831203135E14A1
:100C080008003625080010300800103008000800D9
:100C1800080008000800080008000800080008008C
:02400E006E3F03
:00000001FF
